{
  "contractName": "Bounties",
  "abi": [
    {
      "constant": true,
      "inputs": [
        {
          "name": "",
          "type": "uint256"
        }
      ],
      "name": "bounties",
      "outputs": [
        {
          "name": "issuer",
          "type": "address"
        },
        {
          "name": "deadline",
          "type": "uint256"
        },
        {
          "name": "data",
          "type": "string"
        },
        {
          "name": "status",
          "type": "uint8"
        },
        {
          "name": "amount",
          "type": "uint256"
        }
      ],
      "payable": false,
      "stateMutability": "view",
      "type": "function",
      "signature": "0xdc2f8744"
    },
    {
      "inputs": [],
      "payable": false,
      "stateMutability": "nonpayable",
      "type": "constructor",
      "signature": "constructor"
    },
    {
      "anonymous": false,
      "inputs": [
        {
          "indexed": false,
          "name": "bounty_id",
          "type": "uint256"
        },
        {
          "indexed": false,
          "name": "issuer",
          "type": "address"
        },
        {
          "indexed": false,
          "name": "amount",
          "type": "uint256"
        },
        {
          "indexed": false,
          "name": "data",
          "type": "string"
        }
      ],
      "name": "BountyIssued",
      "type": "event",
      "signature": "0xba1576d8891bfe57a45ac4b986d4a4aa912c62f44771d4eec8ab2ce06e3be5b7"
    },
    {
      "anonymous": false,
      "inputs": [
        {
          "indexed": false,
          "name": "bounty_id",
          "type": "uint256"
        },
        {
          "indexed": false,
          "name": "fulfiller",
          "type": "address"
        },
        {
          "indexed": false,
          "name": "fulfillment_id",
          "type": "uint256"
        },
        {
          "indexed": false,
          "name": "data",
          "type": "string"
        }
      ],
      "name": "BountyFulfilled",
      "type": "event",
      "signature": "0xc4f0fe8da4c31907c5e6741ec9f6c2761aef2c6f0aa407d1f22b1420932631b3"
    },
    {
      "anonymous": false,
      "inputs": [
        {
          "indexed": false,
          "name": "bounty_id",
          "type": "uint256"
        },
        {
          "indexed": false,
          "name": "issuer",
          "type": "address"
        },
        {
          "indexed": false,
          "name": "fulfiller",
          "type": "address"
        },
        {
          "indexed": true,
          "name": "fulfillment_id",
          "type": "uint256"
        },
        {
          "indexed": false,
          "name": "amount",
          "type": "uint256"
        }
      ],
      "name": "FulfillmentAccepted",
      "type": "event",
      "signature": "0x85d45a4e923ea9b336558bcd434d3f474644affd5df115bba14b63e75425bde4"
    },
    {
      "anonymous": false,
      "inputs": [
        {
          "indexed": true,
          "name": "bounty_id",
          "type": "uint256"
        },
        {
          "indexed": true,
          "name": "issuer",
          "type": "address"
        },
        {
          "indexed": false,
          "name": "amount",
          "type": "uint256"
        }
      ],
      "name": "BountyCancelled",
      "type": "event",
      "signature": "0xb9670bf4f2273686f771c9ab65309436df5ed75afa63eefec8b67640d8bcf72c"
    },
    {
      "constant": false,
      "inputs": [
        {
          "name": "_data",
          "type": "string"
        },
        {
          "name": "_deadline",
          "type": "uint64"
        }
      ],
      "name": "issueBounty",
      "outputs": [
        {
          "name": "",
          "type": "uint256"
        }
      ],
      "payable": true,
      "stateMutability": "payable",
      "type": "function",
      "signature": "0xa3726253"
    },
    {
      "constant": false,
      "inputs": [
        {
          "name": "_bountyId",
          "type": "uint256"
        },
        {
          "name": "_data",
          "type": "string"
        }
      ],
      "name": "fulfillBounty",
      "outputs": [],
      "payable": false,
      "stateMutability": "nonpayable",
      "type": "function",
      "signature": "0x1e688c14"
    },
    {
      "constant": false,
      "inputs": [
        {
          "name": "_bountyId",
          "type": "uint256"
        },
        {
          "name": "_fulfillmentId",
          "type": "uint256"
        }
      ],
      "name": "acceptFulfillment",
      "outputs": [],
      "payable": false,
      "stateMutability": "nonpayable",
      "type": "function",
      "signature": "0xd9583497"
    },
    {
      "constant": false,
      "inputs": [
        {
          "name": "_bountyId",
          "type": "uint256"
        }
      ],
      "name": "cancelBounty",
      "outputs": [],
      "payable": false,
      "stateMutability": "nonpayable",
      "type": "function",
      "signature": "0xe5e5dff1"
    }
  ],
  "bytecode": "0x608060405234801561001057600080fd5b50611122806100206000396000f3fe608060405260043610610067576000357c0100000000000000000000000000000000000000000000000000000000900480631e688c141461006c578063a37262531461013e578063d958349714610221578063dc2f874414610266578063e5e5dff114610370575b600080fd5b34801561007857600080fd5b5061013c6004803603604081101561008f57600080fd5b8101908080359060200190929190803590602001906401000000008111156100b657600080fd5b8201836020820111156100c857600080fd5b803590602001918460018302840111640100000000831117156100ea57600080fd5b91908080601f016020809104026020016040519081016040528093929190818152602001838380828437600081840152601f19601f8201169050808301925050505050505091929192905050506103ab565b005b61020b6004803603604081101561015457600080fd5b810190808035906020019064010000000081111561017157600080fd5b82018360208201111561018357600080fd5b803590602001918460018302840111640100000000831117156101a557600080fd5b91908080601f016020809104026020016040519081016040528093929190818152602001838380828437600081840152601f19601f820116905080830192505050505050509192919290803567ffffffffffffffff1690602001909291905050506106b9565b6040518082815260200191505060405180910390f35b34801561022d57600080fd5b506102646004803603604081101561024457600080fd5b810190808035906020019092919080359060200190929190505050610901565b005b34801561027257600080fd5b5061029f6004803603602081101561028957600080fd5b8101908080359060200190929190505050610d05565b604051808673ffffffffffffffffffffffffffffffffffffffff1673ffffffffffffffffffffffffffffffffffffffff168152602001858152602001806020018460028111156102eb57fe5b60ff168152602001838152602001828103825285818151815260200191508051906020019080838360005b83811015610331578082015181840152602081019050610316565b50505050905090810190601f16801561035e5780820380516001836020036101000a031916815260200191505b50965050505050505060405180910390f35b34801561037c57600080fd5b506103a96004803603602081101561039357600080fd5b8101908080359060200190929190505050610e0f565b005b81600080549050811015156103bf57600080fd5b826000818154811015156103cf57fe5b906000526020600020906005020160000160009054906101000a900473ffffffffffffffffffffffffffffffffffffffff1673ffffffffffffffffffffffffffffffffffffffff163373ffffffffffffffffffffffffffffffffffffffff161415151561043b57600080fd5b83600080600281111561044a57fe5b60008381548110151561045957fe5b906000526020600020906005020160030160009054906101000a900460ff16600281111561048357fe5b14151561048f57600080fd5b8560008181548110151561049f57fe5b906000526020600020906005020160010154421015156104be57600080fd5b600160008881526020019081526020016000206060604051908101604052806000151581526020013373ffffffffffffffffffffffffffffffffffffffff168152602001888152509080600181540180825580915050906001820390600052602060002090600202016000909192909190915060008201518160000160006101000a81548160ff02191690831515021790555060208201518160000160016101000a81548173ffffffffffffffffffffffffffffffffffffffff021916908373ffffffffffffffffffffffffffffffffffffffff16021790555060408201518160010190805190602001906105b4929190611051565b505050507fc4f0fe8da4c31907c5e6741ec9f6c2761aef2c6f0aa407d1f22b1420932631b3873360018060008c8152602001908152602001600020805490500389604051808581526020018473ffffffffffffffffffffffffffffffffffffffff1673ffffffffffffffffffffffffffffffffffffffff16815260200183815260200180602001828103825283818151815260200191508051906020019080838360005b83811015610673578082015181840152602081019050610658565b50505050905090810190601f1680156106a05780820380516001836020036101000a031916815260200191505b509550505050505060405180910390a150505050505050565b600080341115156106c957600080fd5b8167ffffffffffffffff1642811115156106e257600080fd5b600060a0604051908101604052803373ffffffffffffffffffffffffffffffffffffffff1681526020018567ffffffffffffffff1681526020018681526020016000600281111561072f57fe5b8152602001348152509080600181540180825580915050906001820390600052602060002090600502016000909192909190915060008201518160000160006101000a81548173ffffffffffffffffffffffffffffffffffffffff021916908373ffffffffffffffffffffffffffffffffffffffff1602179055506020820151816001015560408201518160020190805190602001906107d0929190611051565b5060608201518160030160006101000a81548160ff021916908360028111156107f557fe5b0217905550608082015181600401555050507fba1576d8891bfe57a45ac4b986d4a4aa912c62f44771d4eec8ab2ce06e3be5b7600160008054905003333487604051808581526020018473ffffffffffffffffffffffffffffffffffffffff1673ffffffffffffffffffffffffffffffffffffffff16815260200183815260200180602001828103825283818151815260200191508051906020019080838360005b838110156108b2578082015181840152602081019050610897565b50505050905090810190601f1680156108df5780820380516001836020036101000a031916815260200191505b509550505050505060405180910390a160016000805490500391505092915050565b816000805490508110151561091557600080fd5b828260016000838152602001908152602001600020805490508110151561093b57600080fd5b8460008181548110151561094b57fe5b906000526020600020906005020160000160009054906101000a900473ffffffffffffffffffffffffffffffffffffffff1673ffffffffffffffffffffffffffffffffffffffff163373ffffffffffffffffffffffffffffffffffffffff161415156109b657600080fd5b8560008060028111156109c557fe5b6000838154811015156109d457fe5b906000526020600020906005020160030160009054906101000a900460ff1660028111156109fe57fe5b141515610a0a57600080fd5b8787600015156001600084815260200190815260200160002082815481101515610a3057fe5b906000526020600020906002020160000160009054906101000a900460ff161515141515610a5d57600080fd5b60018060008c81526020019081526020016000208a815481101515610a7e57fe5b906000526020600020906002020160000160006101000a81548160ff021916908315150217905550600160008b815481101515610ab757fe5b906000526020600020906005020160030160006101000a81548160ff02191690836002811115610ae357fe5b0217905550600160008b815260200190815260200160002089815481101515610b0857fe5b906000526020600020906002020160000160019054906101000a900473ffffffffffffffffffffffffffffffffffffffff1673ffffffffffffffffffffffffffffffffffffffff166108fc60008c815481101515610b6257fe5b9060005260206000209060050201600401549081150290604051600060405180830381858888f19350505050158015610b9f573d6000803e3d6000fd5b50887f85d45a4e923ea9b336558bcd434d3f474644affd5df115bba14b63e75425bde48b60008d815481101515610bd257fe5b906000526020600020906005020160000160009054906101000a900473ffffffffffffffffffffffffffffffffffffffff16600160008f81526020019081526020016000208d815481101515610c2457fe5b906000526020600020906002020160000160019054906101000a900473ffffffffffffffffffffffffffffffffffffffff1660008f815481101515610c6557fe5b906000526020600020906005020160040154604051808581526020018473ffffffffffffffffffffffffffffffffffffffff1673ffffffffffffffffffffffffffffffffffffffff1681526020018373ffffffffffffffffffffffffffffffffffffffff1673ffffffffffffffffffffffffffffffffffffffff16815260200182815260200194505050505060405180910390a250505050505050505050565b600081815481101515610d1457fe5b90600052602060002090600502016000915090508060000160009054906101000a900473ffffffffffffffffffffffffffffffffffffffff1690806001015490806002018054600181600116156101000203166002900480601f016020809104026020016040519081016040528092919081815260200182805460018160011615610100020316600290048015610dec5780601f10610dc157610100808354040283529160200191610dec565b820191906000526020600020905b815481529060010190602001808311610dcf57829003601f168201915b5050505050908060030160009054906101000a900460ff16908060040154905085565b8060008054905081101515610e2357600080fd5b81600081815481101515610e3357fe5b906000526020600020906005020160000160009054906101000a900473ffffffffffffffffffffffffffffffffffffffff1673ffffffffffffffffffffffffffffffffffffffff163373ffffffffffffffffffffffffffffffffffffffff16141515610e9e57600080fd5b826000806002811115610ead57fe5b600083815481101515610ebc57fe5b906000526020600020906005020160030160009054906101000a900460ff166002811115610ee657fe5b141515610ef257600080fd5b6002600086815481101515610f0357fe5b906000526020600020906005020160030160006101000a81548160ff02191690836002811115610f2f57fe5b0217905550600085815481101515610f4357fe5b906000526020600020906005020160000160009054906101000a900473ffffffffffffffffffffffffffffffffffffffff1673ffffffffffffffffffffffffffffffffffffffff166108fc600087815481101515610f9d57fe5b9060005260206000209060050201600401549081150290604051600060405180830381858888f19350505050158015610fda573d6000803e3d6000fd5b503373ffffffffffffffffffffffffffffffffffffffff16857fb9670bf4f2273686f771c9ab65309436df5ed75afa63eefec8b67640d8bcf72c60008881548110151561102357fe5b9060005260206000209060050201600401546040518082815260200191505060405180910390a35050505050565b828054600181600116156101000203166002900490600052602060002090601f016020900481019282601f1061109257805160ff19168380011785556110c0565b828001600101855582156110c0579182015b828111156110bf5782518255916020019190600101906110a4565b5b5090506110cd91906110d1565b5090565b6110f391905b808211156110ef5760008160009055506001016110d7565b5090565b9056fea165627a7a7230582026359d6cdca278845a36d0c6b9fc742d21adf35a10bf639a5fa445015c448c320029",
  "source": "pragma solidity ^0.5.0;\n\n/**\n * @title Bounties\n * @author Joshua Cassidy- <joshua.cassidy@consensys.net>\n * @dev Simple smart contract which allows any user to issue a bounty in ETH linked to requirements stored in ipfs\n * which anyone can fufill by submitting the ipfs hash which contains evidence of their fufillment\n */\ncontract Bounties {\n\n  /*\n  * Enums\n  */\n\n  enum BountyStatus { CREATED, ACCEPTED, CANCELLED }\n\n  /*\n  * Storage\n  */\n\n  Bounty[] public bounties;\n\n  mapping(uint=>Fulfillment[]) fulfillments;\n\n  /*\n  * Structs\n  */\n\n  struct Bounty {\n      address payable issuer;\n      uint deadline;\n      string data;\n      BountyStatus status;\n      uint amount; //in wei\n  }\n\n  struct Fulfillment {\n      bool accepted;\n      address payable fulfiller;\n      string data;\n  }\n\n  /**\n   * @dev Contructor\n   */\n  constructor() public {}\n\n  /**\n  * @dev issueBounty(): instantiates a new bounty\n  * @param _deadline the unix timestamp after which fulfillments will no longer be accepted\n  * @param _data the requirements of the bounty\n  */\n  function issueBounty(\n      string memory _data,\n      uint64 _deadline\n  )\n      public\n      payable\n      hasValue()\n      validateDeadline(_deadline)\n      returns (uint)\n  {\n      bounties.push(Bounty(msg.sender, _deadline, _data, BountyStatus.CREATED, msg.value));\n      emit BountyIssued(bounties.length - 1,msg.sender, msg.value, _data);\n      return (bounties.length - 1);\n  }\n\n  /**\n  * @dev fulfillBounty(): submit a fulfillment for the given bounty\n  * @param _bountyId the index of the bounty to be fufilled\n  * @param _data the ipfs hash which contains evidence of the fufillment\n  */\n  function fulfillBounty(uint _bountyId, string memory _data)\n    public\n    bountyExists(_bountyId)\n    notIssuer(_bountyId)\n    hasStatus(_bountyId, BountyStatus.CREATED)\n    isBeforeDeadline(_bountyId)\n  {\n    fulfillments[_bountyId].push(Fulfillment(false, msg.sender, _data));\n    emit BountyFulfilled(_bountyId, msg.sender, (fulfillments[_bountyId].length - 1),_data);\n  }\n\n  /**\n  * @dev acceptFulfillment(): accept a given fulfillment\n  * @param _bountyId the index of the bounty\n  * @param _fulfillmentId the index of the fulfillment being accepted\n  */\n  function acceptFulfillment(uint _bountyId, uint _fulfillmentId)\n      public\n      bountyExists(_bountyId)\n      fulfillmentExists(_bountyId,_fulfillmentId)\n      onlyIssuer(_bountyId)\n      hasStatus(_bountyId, BountyStatus.CREATED)\n      fulfillmentNotYetAccepted(_bountyId, _fulfillmentId)\n  {\n      fulfillments[_bountyId][_fulfillmentId].accepted = true;\n      bounties[_bountyId].status = BountyStatus.ACCEPTED;\n      fulfillments[_bountyId][_fulfillmentId].fulfiller.transfer(bounties[_bountyId].amount);\n      emit FulfillmentAccepted(_bountyId, bounties[_bountyId].issuer, fulfillments[_bountyId][_fulfillmentId].fulfiller, _fulfillmentId, bounties[_bountyId].amount);\n  }\n\n  /** @dev cancelBounty(): cancels the bounty and send the funds back to the issuer\n  * @param _bountyId the index of the bounty\n  */\n  function cancelBounty(uint _bountyId)\n      public\n      bountyExists(_bountyId)\n      onlyIssuer(_bountyId)\n      hasStatus(_bountyId, BountyStatus.CREATED)\n  {\n      bounties[_bountyId].status = BountyStatus.CANCELLED;\n      bounties[_bountyId].issuer.transfer(bounties[_bountyId].amount);\n      emit BountyCancelled(_bountyId, msg.sender, bounties[_bountyId].amount);\n  }\n\n  /**\n  * Modifiers\n  */\n\n  modifier hasValue() {\n      require(msg.value > 0);\n      _;\n  }\n\n  modifier bountyExists(uint _bountyId){\n    require(_bountyId < bounties.length);\n    _;\n  }\n\n  modifier fulfillmentExists(uint _bountyId, uint _fulfillmentId){\n    require(_fulfillmentId < fulfillments[_bountyId].length);\n    _;\n  }\n\n  modifier hasStatus(uint _bountyId, BountyStatus _desiredStatus) {\n    require(bounties[_bountyId].status == _desiredStatus);\n    _;\n  }\n\n  modifier onlyIssuer(uint _bountyId) {\n      require(msg.sender == bounties[_bountyId].issuer);\n      _;\n  }\n\n  modifier notIssuer(uint _bountyId) {\n      require(msg.sender != bounties[_bountyId].issuer);\n      _;\n  }\n\n  modifier fulfillmentNotYetAccepted(uint _bountyId, uint _fulfillmentId) {\n    require(fulfillments[_bountyId][_fulfillmentId].accepted == false);\n    _;\n  }\n\n  modifier validateDeadline(uint _newDeadline) {\n      require(_newDeadline > now);\n      _;\n  }\n\n  modifier isBeforeDeadline(uint _bountyId) {\n    require(now < bounties[_bountyId].deadline);\n    _;\n  }\n\n  /**\n  * Events\n  */\n  event BountyIssued(uint bounty_id, address issuer, uint amount, string data);\n  event BountyFulfilled(uint bounty_id, address fulfiller, uint fulfillment_id, string data);\n  event FulfillmentAccepted(uint bounty_id, address issuer, address fulfiller, uint indexed fulfillment_id, uint amount);\n  event BountyCancelled(uint indexed bounty_id, address indexed issuer, uint amount);\n\n}\n",
  "sourcePath": "/Users/joshuacassidy/DAPPS/kauri-fullstack-dapp-tutorial-series/dapp-series-bounties/contracts/Bounties.sol",
  "compiler": {
    "name": "solc",
    "version": "0.5.1+commit.c8a2cb62.Emscripten.clang"
  },
  "schemaVersion": "3.0.0-beta.2",
  "updatedAt": "2018-12-11T17:07:10.017Z",
  "devdoc": {
    "author": "Joshua Cassidy- <joshua.cassidy@consensys.net>",
    "details": "Simple smart contract which allows any user to issue a bounty in ETH linked to requirements stored in ipfs which anyone can fufill by submitting the ipfs hash which contains evidence of their fufillment",
    "methods": {
      "acceptFulfillment(uint256,uint256)": {
        "details": "acceptFulfillment(): accept a given fulfillment",
        "params": {
          "_bountyId": "the index of the bounty",
          "_fulfillmentId": "the index of the fulfillment being accepted"
        }
      },
      "cancelBounty(uint256)": {
        "details": "cancelBounty(): cancels the bounty and send the funds back to the issuer",
        "params": {
          "_bountyId": "the index of the bounty"
        }
      },
      "constructor": {
        "details": "Contructor"
      },
      "fulfillBounty(uint256,string)": {
        "details": "fulfillBounty(): submit a fulfillment for the given bounty",
        "params": {
          "_bountyId": "the index of the bounty to be fufilled",
          "_data": "the ipfs hash which contains evidence of the fufillment"
        }
      },
      "issueBounty(string,uint64)": {
        "details": "issueBounty(): instantiates a new bounty",
        "params": {
          "_data": "the requirements of the bounty",
          "_deadline": "the unix timestamp after which fulfillments will no longer be accepted"
        }
      }
    },
    "title": "Bounties"
  },
  "userdoc": {
    "methods": {}
  }
}